:100000000C9462000C948A000C948A000C948A0070
:100010000C948A000C948A000C948A000C948A0038
:100020000C948A000C948A000C948A000C948A0028
:100030000C948A000C948A000C948A000C948A0018
:100040000C9474030C948A000C9442030C941C03CB
:100050000C948A000C948A000C948A000C948A00F8
:100060000C948A000C948A000000000025002800EF
:100070002B0000000000240027002A0000000000E0
:1000800023002600290004040404040404040202DA
:100090000202020203030303030301020408102007
:1000A0004080010204081020010204081020000012
:1000B0000008000201000003040700000000000027
:1000C00000009C0811241FBECFEFD8E0DEBFCDBFDB
:1000D00011E0A0E0B1E0E2EFF1E102C005900D9285
:1000E000AC32B107D9F721E0ACE2B1E001C01D921A
:1000F000A03FB207E1F710E0C2E6D0E004C02197CC
:10010000FE010E94F108C136D107C9F70E94BE0363
:100110000C94F7080C94000090E0FC01E656FF4FA9
:1001200024918A579F4FFC018491882399F090E095
:10013000880F991FFC01EE58FF4FA591B491FC0167
:10014000E859FF4F859194918FB7F894EC91E22B89
:10015000EC938FBF0895AF92BF92CF92DF92EF9250
:10016000FF920F931F93CF93DF936C017B018B0161
:10017000040F151FEB015E01AE18BF08C017D107B1
:1001800059F06991D601ED91FC910190F081E02D3B
:10019000C6010995892B79F7C501DF91CF911F9190
:1001A0000F91FF90EF90DF90CF90BF90AF900895A8
:1001B000FC01538D448D252F30E0842F90E0821B6D
:1001C000930B541710F0CF96089501970895FC01F2
:1001D000918D828D981761F0A28DAE0FBF2FB11D4A
:1001E0005D968C91928D9F5F9F73928F90E00895A2
:1001F0008FEF9FEF0895FC01918D828D981731F05C
:10020000828DE80FF11D858D90E008958FEF9FEFAF
:100210000895FC01918D228D892F90E0805C9F4F85
:10022000821B91098F739927089585E391E00E94BD
:10023000090121E0892B09F420E0822F089580E054
:1002400090E0892B29F00E94150181110C94000087
:100250000895FC01A48DA80FB92FB11DA35ABF4F5B
:100260002C91848D90E001968F739927848FA689B5
:10027000B7892C93A089B1898C91837080648C9309
:10028000938D848D981306C00288F389E02D8081B8
:100290008F7D80830895EF92FF920F931F93CF93EA
:1002A000DF93EC0181E0888F9B8D8C8D98131AC0B1
:1002B000E889F989808185FF15C09FB7F894EE8998
:1002C000FF896083E889F9898081837080648083F5
:1002D0009FBF81E090E0DF91CF911F910F91FF9040
:1002E000EF900895F62E0B8D10E00F5F1F4F0F73E8
:1002F0001127E02E8C8D8E110CC00FB607FCFACFA3
:10030000E889F989808185FFF5CFCE010E94290116
:10031000F1CFEB8DEC0FFD2FF11DE35AFF4FF08273
:100320009FB7F8940B8FEA89FB8980818062CFCFD9
:10033000CF93DF93EC01888D8823B9F0AA89BB891C
:10034000E889F9898C9185FD03C0808186FD0DC007
:100350000FB607FCF7CF8C9185FFF2CF808185FF28
:10036000EDCFCE010E942901E9CFDF91CF91089511
:10037000833081F028F4813099F08230A9F008951B
:100380008730A9F08830C9F08430B1F480918000C2
:100390008F7D03C0809180008F77809380000895C7
:1003A00084B58F7784BD089584B58F7DFBCF809110
:1003B000B0008F778093B00008958091B0008F7D5A
:1003C000F9CFCF93DF93E0EBF0E08491ECE9F0E03C
:1003D000D491E8E8F0E0C491CC23A1F081110E940F
:1003E000B801EC2FF0E0EE0FFF1FE458FF4FA5918E
:1003F000B491EC91ED2381E090E009F480E0DF918D
:10040000CF91089580E090E0FACF1F93CF93DF93D0
:10041000282F30E0F901E255FF4F8491F901E656AB
:10042000FF4FD491F901EA57FF4FC491CC23A9F0B3
:10043000162F81110E94B801EC2FF0E0EE0FFF1F84
:10044000E859FF4FA591B4918FB7F894EC91111131
:1004500008C0D095DE23DC938FBFDF91CF911F9131
:100460000895DE2BF8CF3FB7F89480913101909139
:100470003201A0913301B091340126B5A89B05C08B
:100480002F3F19F00196A11DB11D3FBFBA2FA92F13
:10049000982F8827BC01CD01620F711D811D911D10
:1004A00042E0660F771F881F991F4A95D1F708957C
:1004B0008F929F92AF92BF92CF92DF92EF92FF9274
:1004C0004B015C010E9433026B017C010E943302EC
:1004D0006C197D098E099F09683E7340810591055D
:1004E000A8F321E0821A9108A108B10888EEC80E8D
:1004F00083E0D81EE11CF11C81149104A104B10415
:1005000029F7FF90EF90DF90CF90BF90AF909F9032
:100510008F9008950F931F93CF93DF938C0160E02A
:1005200087E00E940502D0E0C0E060E088E00E9421
:100530000502B8010C2E02C0769567950A94E2F781
:10054000617086E00E94050261E088E00E94050279
:100550002196C031D10549F761E087E0DF91CF9165
:100560001F910F910C940502FC01EE0FFF1FE80F85
:10057000F91FE60FF71FEE0FFF1FEE5FFE4F8081A2
:1005800091812091000130910101822B932B440F26
:10059000551FFA01EA5DFE4F2081318182239323AA
:1005A00090930101809300010C948A02FC01EE0FEC
:1005B000FF1FE80FF91FE60FF71FEE0FFF1FEE5F9B
:1005C000FE4F808191812091000130910101822BA9
:1005D000932B90930101809300010C948A02FA01FD
:1005E000EE0FFF1FEA5DFE4F2091000130910101E7
:1005F0004081518124233523660F771FFB01EA5D7B
:10060000FE4F4081518124233523880F991FFC011F
:10061000EA5DFE4F808191818223932390930101B3
:10062000809300010C948A0280E09EE09093010187
:10063000809300010C948A021F920F920FB60F92C2
:1006400011242F933F934F935F936F937F938F93D7
:100650009F93AF93BF93EF93FF9385E391E00E9445
:100660002901FF91EF91BF91AF919F918F917F9160
:100670006F915F914F913F912F910F900FBE0F900F
:100680001F9018951F920F920FB60F9211242F935F
:100690008F939F93EF93FF93E0914501F091460173
:1006A0008081E0914B01F0914C0182FD1BC0908153
:1006B00080914E018F5F8F7320914F01821741F01F
:1006C000E0914E01F0E0EB5CFE4F958F80934E0180
:1006D000FF91EF919F918F912F910F900FBE0F90EF
:1006E0001F9018958081F4CF1F920F920FB60F9232
:1006F00011242F933F938F939F93AF93BF93809138
:100700002D0190912E01A0912F01B09130013091D7
:100710002C0123E0230F2D3758F50196A11DB11DA3
:1007200020932C0180932D0190932E01A0932F01F3
:10073000B09330018091310190913201A091330149
:10074000B09134010196A11DB11D809331019093A8
:100750003201A0933301B0933401BF91AF919F91C7
:100760008F913F912F910F900FBE0F901F90189572
:1007700026E8230F0296A11DB11DD2CF789484B52F
:10078000826084BD84B5816084BD85B5826085BD8D
:1007900085B5816085BD80916E00816080936E001B
:1007A000109281008091810082608093810080910D
:1007B00081008160809381008091800081608093BE
:1007C00080008091B10084608093B1008091B0007E
:1007D00081608093B00080917A00846080937A0079
:1007E00080917A00826080937A0080917A008160A3
:1007F00080937A0080917A00806880937A001092CA
:10080000C100E0914501F091460182E08083E091D2
:100810004101F09142011082E0914301F0914401C5
:100820008FEC808310924D01E0914901F0914A01D3
:1008300086E08083E0914701F091480180818061EA
:100840008083E0914701F091480180818860808336
:10085000E0914701F0914801808180688083E091B8
:100860004701F091480180818F7D808387E00E945D
:100870008C0088E00E948C0086E00E948C0060E082
:1008800088E00E94050260E086E00E94050260E0C8
:1008900087E00E9405021092EB011092EA01A2E0AB
:1008A000CA2ED12CB5E06B2E712CC1E0D0E012E045
:1008B000E12EF12CE8E04E2E512CF0E02F2EF0E04E
:1008C0003F2E0E94E101892B09F04AC00091EE0100
:1008D0001091EF0164E170E080E090E00E94580226
:1008E0000E94E101892BC1F50F5F1F4F1093EF01AB
:1008F0000093EE011092E9011092E8011092E701D5
:100900001092E6011092E5011092E4011092E301C9
:100910001092E2011092E1011092E0011092EB01BD
:100920001092EA011092DF011092DE011092DD01B7
:100930001092DC011092DB011092DA0107301105F0
:1009400009F0A2C08091EC019091ED01892B21F476
:10095000D093EB01C093EA010E94E101892BE1F3FE
:100960008091EE019091EF018730910509F09AC0D6
:100970004091EC015091ED014130510591F52091EC
:10098000EA013091EB012F5F3F4F2530310509F42B
:1009900084C03093EB012093EA011092E901109298
:1009A000E8011092E7011092E6011092E501109221
:1009B000E4011092E3011092E2011092E101109221
:1009C000E0011092DF011092DE011092DD01109221
:1009D000DC011092DB011092DA011092ED0110920D
:1009E000EC012091EA013091EB012130310509F44D
:1009F0005DC08230910521F02230310509F082C1BD
:100A00000091E0011091E101033011050CF001C1EA
:100A10001093E3010093E2011092E5011092E401CA
:100A200061E070E081E090E00E94D6028090E401F5
:100A30009090E501A090E201B090E301B401C501FE
:100A40000E94D602B60168197909C6018A199B0964
:100A50000E94D602A090DA01B090DB014091DE0145
:100A60005091DF016091DC017091DD01C5010E94B0
:100A7000EF020F5F1F4F0430110509F4D3C010932C
:100A8000E1010093E00179C00830110509F064CF5D
:100A90001092EF011092EE015FCF5093EB01409363
:100AA000EA017BCF8130910509F09BCF4091E601AF
:100AB0005091E7010091E0011091E10141305105B1
:100AC00041F4033011050CF07BC0C601801B910B73
:100AD0006EC0033011054CF41093E5010093E4015E
:100AE0001092E3011092E20110C0C801039703972E
:100AF00008F057C0C301801B910B9093E5018093D0
:100B0000E401D093E301C093E2016091E4017091AC
:100B1000E5018091E2019091E3010E94B4020F5F30
:100B20001F4F1093E1010093E0010930110529F5F1
:100B30001092E3011092E2011092E5011092E4019B
:100B40001092E1011092E0018091E8019091E90199
:100B500001968430910509F44EC09093E901809389
:100B6000E8018091E8019091E901833091050CF052
:100B70004BC09093E7018093E60164E670E080E06B
:100B800090E00E9458020E9414032114310409F4D9
:100B900098CE0E941501882309F48CCE0E94000093
:100BA00089CEC80106978330910508F0AECF9093A7
:100BB000E5018093E401F092E301E092E201A5CF28
:100BC000C80103978330910548F49093E501809321
:100BD000E4015093E3014093E20197CFC8010697E7
:100BE000039708F092CFC201801B910B9093E5010F
:100BF0008093E40175CF1092E9011092E801D0933F
:100C0000ED01C093EC01ADCFD093E701C093E601B5
:100C1000B4CFF092E301E092E201D093E501C093FA
:100C2000E401FECE1092E1011092E001E091E801B2
:100C3000F091E9019F012F5F3F4FC90163E070E030
:100C40000E94C908892B91F4E830F105BCF48FEFBC
:100C5000A81AB80AB092DF01A092DE01B092DD01BD
:100C6000A092DC01B092DB01A092DA0122313105C1
:100C7000A1F13093E9012093E8017FCFEB30F1053A
:100C80006CF4D093DB01C093DA01F092DF01E092C3
:100C9000DE01F092DD01E092DC01E8CFEE30F105FB
:100CA0006CF41092DB011092DA01D093DD01C09355
:100CB000DC01F092DF01E092DE01D8CF7197B4F64B
:100CC0001092DB011092DA01D093DF01C093DE01B4
:100CD000D093DD01C093DC01C9CF1092E9011092DD
:100CE000E8011092DF011092DE011092DD011092F6
:100CF000DC011092DB011092DA01D093ED01C09378
:100D0000EC013BCF8330910521F02330310509F010
:100D100071C00091E0011091E101033011052CF543
:100D200070E060E0C8010E94D60261E070E0C80196
:100D30000E94D60262E070E0C8010E94D60242E042
:100D400050E061E070E090E080E00E94EF020F5F11
:100D50001F4F09301105A1F11093E1010093E0014B
:100D600068EC70E080E090E00CCF0630110594F460
:100D7000580193E0A91AB108B50190E080E00E9403
:100D8000D602B50181E090E00E94D602B50182E072
:100D900090E0D3CF09301105D4F68FEF9FE00E9489
:100DA0008A02F801EE0FFF1FE65EFE4F80819181FF
:100DB0009F7090930101809300010E948A02C7CF27
:100DC0001092E1011092E0018091E8019091E90117
:100DD00001968330910529F09093E9018093E80111
:100DE000BFCF1092E9011092E801D093ED01C093BA
:100DF000EC01B6CF8430910521F02430310509F0A3
:100E000043C00091E0011091E10103301105F4F4B9
:100E1000A80161E070E081E090E00E94B4020F5F01
:100E20001F4F0630110509F02ACE1092E1011092F1
:100E3000E0018091E8019091E901019683309105EC
:100E4000F1F09093E9018093E80197CE0630110507
:100E500034F785E49FE00E948A02F301E01BF10B66
:100E6000EE0FFF1FEA5DFE4F8081918185749F70B8
:100E700090930101809300010E948A02D0CF1092CA
:100E8000E9011092E80139CF8530910521F0253034
:100E9000310509F08EC00091E0011091E1010115CA
:100EA000110531F541E050E061E070E081E090E053
:100EB0000E94B40260E971E080E090E00E94580274
:100EC0000F5F1F4F0430110509F044C01092E1017B
:100ED0001092E0018091E8019091E9010196833040
:100EE000910509F45DC09093E9018093E8014BCE30
:100EF00001301105A1F509E110E054E1A52EB12C56
:100F000061E070E081E090E00E94D60242E050E0B3
:100F100061E070E090E080E00E94EF0281E0A81ABA
:100F2000B10871F70E94140344E1A42EB12C8AEB9E
:100F30009AE090930101809300010E948A0291E05F
:100F4000A91AB108A1F70E94140301501109A9F6CA
:100F500002E010E01093E1010093E00114CE0230B2
:100F6000110549F48AEB90E0909301018093000110
:100F70000E948A029FCF0330110509F0A1CF8FEFA5
:100F80009FE090930101809300010E948A0242E059
:100F900050E061E070E090E080E00E94EF028ACFD4
:100FA0001092E9011092E801D093ED01C093EC0199
:100FB000EACD069721F02630310509F0E6CD009103
:100FC000E0011091E10103301105A4F41093D9015F
:100FD0000093D8011092D7011092D601F092D5015A
:100FE000E092D401C601801B910B9093D3018093B2
:100FF000D20114C00330110509F05DC0F092D9018F
:10100000E092D801D093D701C093D601D093D501F7
:10101000C093D4011092D3011092D2013AE0A32ED2
:10102000B12C2AE0822E912C6091D6017091D701CB
:1010300050E040E08091D8019091D9010E94B40223
:1010400091E0891A910881F70E9414039AE0892E91
:10105000912C41E050E061E070E081E090E00E947E
:10106000B40281E0881A9108A1F70E9414038AE073
:10107000882E912C6091D2017091D30142E050E012
:101080008091D4019091D5010E94B40291E0891A17
:10109000910881F70E94140381E0A81AB10809F0B1
:1010A000C0CF0F5F1F4F0830110561F11093E101B0
:1010B0000093E0016ACDC80104978330910588F45C
:1010C00026E030E0201B310B3093D9012093D8016A
:1010D000F092D701E092D6011092D5011092D4017E
:1010E00084CF1092D9011092D801D093D701C09328
:1010F000D601D093D501C093D401F092D301E092F0
:10110000D2018CCF1092E1011092E0018091E801B0
:101110009091E90101968330910529F09093E901BE
:101120008093E80132CD1092E9011092E801D0934A
:10113000ED01C093EC0129CDE5E3F1E013821282C9
:1011400088EE93E0A0E0B0E084839583A683B78324
:1011500088E191E09183808385EC90E09587848796
:1011600084EC90E09787868780EC90E0918B808B71
:1011700081EC90E0938B828B82EC90E0958B848B5A
:1011800086EC90E0978B868B118E128E138E148EC8
:10119000089597FB072E16F4009407D077FD09D029
:1011A0000E94DD0807FC05D03EF4909581959F4F85
:1011B0000895709561957F4F0895AA1BBB1B51E15F
:1011C00007C0AA1FBB1FA617B70710F0A61BB70BB7
:1011D000881F991F5A95A9F780959095BC01CD015C
:1011E0000895EE0FFF1F0590F491E02D0994F894F7
:0211F000FFCF2F
:1011F200000E010002000400080010002000400060
:1012020080000001000000004B01AB00D8009801F3
:0C1212000901E700FB00FF0DFF0BFF07C8
:00000001FF
